:020000040800F2
:100000000000022009CD0008B9150008BB15000842
:10001000BD150008BF150008C1150008000000004C
:10002000000000000000000000000000C3150008F0
:10003000C515000800000000C7150008C915000814
:1000400059CD000859CD000859CD000859CD0008F8
:1000500059CD000859CD000859CD000859CD0008E8
:1000600059CD000859CD000859CD0008D115000818
:10007000E1150008F1150008011600081116000826
:100080002116000859CD000859CD000859CD0008A7
:1000900059CD000859CD000859CD000859CD0008A8
:1000A00059CD000859CD000859CD000859CD000898
:1000B00059CD000859CD00083116000859CD000867
:1000C00059CD00084116000859CD000859CD000847
:1000D00059CD000859CD000859CD000859CD000868
:1000E00059CD000859CD00080000000059CD000886
:1000F00059CD000859CD000859CD000859CD000848
:1001000059CD000859CD000859CD000859CD000837
:1001100059CD000859CD000859CD000859CD000827
:1001200059CD000859CD000859CD000859CD000817
:1001300059CD000859CD000859CD000859CD000807
:1001400000000000000000000000000000000000AF
:1001500059CD000859CD00085116000859CD0008A6
:1001600059CD000859CD000859CD000859CD0008D7
:1001700059CD00086116000859CD000800000000A4
:1001800059CD000859CD000859CD000859CD0008B7
:1001900059CD000859CD000859CD000859CD0008A7
:1001A00059CD000859CD000859CD000800000000C5
:1001B00059CD000859CD000859CD000859CD000887
:1001C00059CD000859CD00080000000000000000D3
:1001D000000000000000000059CD000800000000F1
:1001E000000000000000000000000000000000000F
:1001F000000000000000000059CD000859CD0008A3
:1002000059CD000859CD00080000000059CD000864
:1002100059CD000859CD000859CD000859CD000826
:1002200059CD00080000000059CD00080000000072
:100230007116000859CD00080000000059CD0008D3
:1002400059CD000859CD000859CD000859CD0008F6
:1002500059CD000859CD000859CD000859CD0008E6
:1002600059CD000859CD000859CD000859CD0008D6
:1002700059CD000859CD000859CD000800000000F4
:1002800059CD000859CD000859CD000859CD0008B6
:100290000000000059CD000859CD00080000000002
:1002A0000000000059CD000859CD000859CD0008C4
:1002B00059CD000859CD000859CD000859CD000886
:0C02C00059CD000859CD000859CD0008A8
:1002CC0010B5054C237833B9044B13B10448AFF384
:1002DC0000800123237010BD0801002000000000E5
:1002EC00D0CD000808B5034B1BB103490348AFF34D
:1002FC00008008BD000000000C010020D0CD0008DB
:10030C0010F8012B11F8013B012A28BF9A42F7D0B3
:10031C00D01A704753B94AB9002908BF00281CBF2E
:10032C004FF0FF314FF0FF3000F06EB9ADF1080C1B
:10033C006DE904CE00F006F8DDF804E0DDE90223F7
:10034C0004B070472DE9F047089D04468C46002BFD
:10035C0040F083808A42174647D9B2FA82F242B102
:10036C00C2F1200024FA00F09140974040EA010CC1
:10037C0094404FEA1748230CBCFBF8F61FFA87FE93
:10038C0008FB16C143EA014306FB0EF1994209D959
:10039C00FB1806F1FF3080F01981994240F216816A
:1003AC00023E3B445B1AA4B2B3FBF8F008FB1033DB
:1003BC0044EA034400FB0EFEA64509D93C1900F1A2
:1003CC00FF3380F00581A64540F2028102383C449F
:1003DC0040EA0640A4EB0E0400261DB1D4400023D5
:1003EC00C5E900433146BDE8F08702B9FFDEB2FA39
:1003FC0082F2002A50D1CB1B4FEA174E1FFA87F816
:10040C000126B3FBFEFC210C0EFB1C3341EA03411D
:10041C0008FB0CF38B4207D979180CF1FF3002D290
:10042C008B4200F2E9808446C91AA3B2B1FBFEF0FC
:10043C000EFB101143EA014408FB00F8A04507D954
:10044C003C1900F1FF3302D2A04500F2D9801846C6
:10045C00A4EB080440EA0C40BFE78B4209D9002DFD
:10046C0000F0B1800026C5E9000130463146BDE8F8
:10047C00F087B3FA83F6002E4AD18B4202D3824224
:10048C0000F2B880841A61EB030101208C46002D28
:10049C00A8D0C5E9004CA5E7C2F1200320FA03F669
:1004AC00974001FA02F04FEA174ED9403043030C43
:1004BC00B1FBFEF61FFA87F80EFB161143EA014357
:1004CC0006FB08F1994204FA02F409D9FB1806F16B
:1004DC00FF3C80F08D80994240F28A80023E3B4482
:1004EC005B1A81B2B3FBFEF00EFB103341EA034101
:1004FC0000FB08F38B4207D9791800F1FF3C73D24B
:10050C008B4271D902383944CB1A40EA064678E757
:10051C00C6F1200C03FA06F422FA0CF31C4320FA61
:10052C000CF701FA06F34FEA144E21FA0CF11F43B3
:10053C003B0CB1FBFEF91FFA84F80EFB191143EAD0
:10054C00014109FB08FA8A4502FA06F200FA06F3A1
:10055C0008D9611809F1FF3048D28A4546D9A9F16A
:10056C0002092144A1EB0A01BFB2B1FBFEF00EFB64
:10057C00101147EA014700FB08F8B84507D9E719FD
:10058C0000F1FF312ED2B8452CD90238274440EA6D
:10059C000940A7EB0807A0FB02894F45C646494610
:1005AC001AD317D05DB1B3EB0E0267EB010707FA54
:1005BC000CFCF2404CEA0202F740C5E90027002689
:1005CC003146BDE8F0872E4628460BE70646E9E69D
:1005DC001846FDE64345E5D2B8EB020E69EB040183
:1005EC000138DFE70846D2E760468DE78146B9E778
:1005FC00664675E730464AE7ACF1020C394413E71E
:10060C0002383C4424E700BF704700BF064B074A42
:10061C001A6000225A609A604FF48041D9601A61C6
:10062C0008225A61704700BF90170020002402482E
:10063C002DE9F04F8DB000240794089409940A9486
:10064C000B94824BD3F8E02042F01002C3F8E02068
:10065C00D3F8E02002F010020092009AD3F8E020C8
:10066C0042F02002C3F8E020D3F8E02002F0200290
:10067C000192019AD3F8E02042F00402C3F8E02082
:10068C00D3F8E02002F004020292029AD3F8E020A0
:10069C0042F00102C3F8E020D3F8E02002F001029E
:1006AC000392039AD3F8E02042F00202C3F8E02050
:1006BC00D3F8E02002F002020492049AD3F8E0206E
:1006CC0042F04002C3F8E020D3F8E02002F04002F0
:1006DC000592059AD3F8E02042F00802C3F8E02016
:1006EC00D3F8E03003F008030693069BDFF86C8127
:1006FC00224641F20451404606F012F8544F22466D
:10070C0048F20201384606F00BF8DFF854B12246E5
:10071C003021584606F004F8DFF848A122460221A1
:10072C00504605F0FDFFDFF8409122464FF428417A
:10073C00484605F0F5FF474E22460E21304605F09F
:10074C00EFFF224640F20131434805F0E9FF41F248
:10075C00045307930125089509940A9407A9404668
:10076C0005F0EEFE48F202030793089509940A94EB
:10077C0007A9384605F0E4FE302307930895099441
:10078C000A9407A9584605F0DBFE4FF0020BCDF892
:10079C001CB0089509940A9407A9504605F0D0FEA0
:1007AC00042307930894099507A9504605F0C8FE41
:1007BC004FF428430793089509940A9407A94846CF
:1007CC0005F0BEFE4FF4A04307930894099507A9C2
:1007DC00484605F0B5FE07950894099507A93046DB
:1007EC0005F0AEFE0E230793089509940A9407A909
:1007FC00304605F0A5FE4FF42A530793089409954B
:10080C0007A9404605F09CFE40F20133079308957A
:10081C0009940A9407A9104805F092FE1023079337
:10082C000894099407A9304605F08AFE4FF48073AA
:10083C000793CDF820B009940A940B9407A9384675
:10084C0005F07EFE0DB0BDE8F08F00BF00440258ED
:10085C000000025800180258000C025800100258F0
:10086C0000080258000402580014025800B583B066
:10087C00294BD3F8D82042F00102C3F8D820D3F882
:10088C00D82002F001020092009AD3F8D82042F04E
:10089C000202C3F8D820D3F8D83003F00203019336
:1008AC00019B002211460B2006F01EFE0B2006F0C9
:1008BC004DFE002211460C2006F016FE0C2006F010
:1008CC0045FE002211460D2006F00EFE0D2006F00E
:1008DC003DFE002211460E2006F006FE0E2006F00C
:1008EC0035FE002211460F2006F0FEFD0F2006F00B
:1008FC002DFE00221146102006F0F6FD102006F009
:10090C0025FE00221146462006F0EEFD462006F09C
:10091C001DFE03B05DF804FB0044025830B583B0F3
:10092C008DF807008DF806100E4C00224FF48061F4
:10093C00204605F0F5FE0C4D642301220DF1070154
:10094C00284609F0A7FC642301220DF10601284674
:10095C0009F0A0FC01224FF48061204605F0E0FE76
:10096C0003B030BD000C02588003002008B50021F4
:10097C001820FFF7D3FF00211920FFF7CFFF4021EC
:10098C001020FFF7CBFF02211120FFF7C7FF08BD96
:10099C0072B6FEE708B51448144B03604FF480039D
:1009AC004360002383600722C260036143614FF000
:1009BC00806282614FF0C042C26103624362836213
:1009CC00C3624FF0804242638363C3630364436436
:1009DC008364C36403654365836509F093FB00B9C5
:1009EC0008BDFFF7D5FF00BF08170020003C0040F2
:1009FC0008B51448144B036000238360C360037470
:100A0C004374837410224261012282610221C1610C
:100A1C00016242628262C262026343638363C363A4
:100A2C000364042242648364C26403654265836583
:100A3C00C36503664366826607F0EEFD00B908BD28
:100A4C00FFF7A6FF5815002000D4004008B5154844
:100A5C00154B03604FF4E133436000238360C360A4
:100A6C0003610C2242618361C3610362436283624E
:100A7C000AF089FF70B900210A480AF0FCFF58B946
:100A8C00002108480BF01CF840B906480AF0D4FFC6
:100A9C0030B908BDFFF77CFFFFF77AFFFFF778FF4F
:100AAC00FFF776FFA01B00200014014010B58CB09E
:100ABC00002409940A940B942422214668460CF0D5
:100ACC0079F91E481E4B03604FF430134360846069
:100ADC00046104234361047644760123C36180F8E6
:100AEC0020408462C4620463C463046480F844409C
:100AFC0007F084FAE0B90023099309A90F4807F01D
:100B0C00EDFBB8B90F4B009306230193032302931B
:100B1C0040F2FF73039304230493002305938DF891
:100B2C0021306946054806F07BFE28B90CB010BD93
:100B3C00FFF72EFFFFF72CFFFFF72AFF30180020DE
:100B4C00002002400040C03A00B58BB00023079350
:100B5C0008930993009301930293039304930593D1
:100B6C0006932248224A02601D224260836042F2B0
:100B7C000F72C260036183610AF0ECF850BB002372
:100B8C000793099307A919480AF0FCF920BB6023C5
:100B9C0000930022019202920492694613480AF0D3
:100BAC0053F9D8B90422694610480AF04DF9B8B97E
:100BBC00082269460D480AF047F998B90C22694693
:100BCC000A480AF041F978B9084801F061F90BB00C
:100BDC005DF804FBFFF7DCFEFFF7DAFEFFF7D8FE4B
:100BEC00FFF7D6FEFFF7D4FEFFF7D2FE0804002075
:100BFC000008004000B58BB02422002101A80CF0A5
:100C0C00D9F81D481D4B03604FF430134360082383
:100C1C0083600023C3600361042242610376437640
:100C2C000122C26180F820308362C36280F83820D0
:100C3C0043630363C363036480F8443007F0DEF955
:100C4C00A8B90F4B0193062302930023039340F2A0
:100C5C00FF72049204220592069308930DEB020195
:100C6C00054806F0DDFD20B90BB05DF804FBFFF77D
:100C7C008FFEFFF78DFE00BF441900200060025864
:100C8C000200300408B51448144B03604FF4800381
:100C9C004360002383600722C260036143614FF00D
:100CAC00806282614FF00052C261036243628362D0
:100CBC00C3624FF0804242638363C3630364436443
:100CCC008364C36403654365836509F01BFA00B94B
:100CDC0008BDFFF75DFE00BF800300200038004018
:100CEC0008B51148114B0360114B4360002383601E
:100CFC000122C260036143618361C361036206F038
:100D0C00CFFC50B90021084806F030FD38B900215D
:100D1C00054806F059FD20B908BDFFF739FEFFF76D
:100D2C0037FEFFF735FE00BF0415002000580040C9
:100D3C005D3E302000B58BB00023079308930993D8
:100D4C00009301930293039304930593069316481F
:100D5C004FF080420260436083605A22C26003619C
:100D6C00836109F0F7FFC8B900230793099307A91A
:100D7C000D480AF007F998B96023009300230193FA
:100D8C00029304930822694607480AF05DF848B9B3
:100D9C00054801F07DF80BB05DF804FBFFF7F8FD9A
:100DAC00FFF7F6FDFFF7F4FD802D002000B58BB0AA
:100DBC0000230793089309930093019302930393E1
:100DCC000493059306931648164A026043608360A9
:100DDC005A22C2600361836109F0BCFFC8B90023C9
:100DEC000793099307A90E480AF0CCF898B9602329
:100DFC00009300230193029304930C226946084844
:100E0C000AF022F848B9064801F042F80BB05DF838
:100E1C0004FBFFF7BDFDFFF7BBFDFFF7B9FD00BFFE
:100E2C0070160020000C004000B58BB00023079317
:100E3C0008930993009301930293039304930593EE
:100E4C0006931948194A0260436083605A22C260B3
:100E5C000361836109F07EFFF0B9002307930993C6
:100E6C0007A911480AF08EF8C0B96023009300223C
:100E7C0001920292049269460B4809F0E5FF78B999
:100E8C0004226946084809F0DFFF58B9064800F00B
:100E9C00FFFF0BB05DF804FBFFF77AFDFFF778FD61
:100EAC00FFF776FDFFF774FDBC1600200004004030
:100EBC0008B51448144B03604FF4800343600023BF
:100ECC0083600722C260036143614FF080628261DC
:100EDC004FF0C042C261036243628362C3624FF04F
:100EEC00804242638363C363036443648364C36467
:100EFC0003654365836509F005F900B908BDFFF783
:100F0C0047FD00BFF82C00200030014008B5154803
:100F1C00154B03604FF4E133436000238360C360DF
:100F2C0003610C2242618361C36103624362836289
:100F3C000AF029FD70B900210A480AF09CFD58B945
:100F4C00002108480AF0BCFD40B906480AF074FDBF
:100F5C0030B908BDFFF71CFDFFF71AFDFFF718FDB0
:100F6C00FFF716FD642C0020004C004008B5094822
:100F7C00094B036063234360002383604FF6FF72C9
:100F8C00C2600361836109F0B5FE00B908BDFFF7CB
:100F9C00FFFC00BFB4190020001C004008B5094834
:100FAC00094B036063234360002383604FF6FF7299
:100FBC00C2600361836109F09DFE00B908BDFFF7B3
:100FCC00E7FC00BFCC2D00200020004000B59DB0F8
:100FDC004C22002109A80BF0EDFE2022002101A8D3
:100FEC000BF0E8FE022006F03BFA00230093264AA1
:100FFC00936923F4404343F400439361936903F4EE
:10100C0040430093009B204B9B6913F4005FFAD084
:10101C002223099301220C9240230D930F9202205C
:10102C00129000231393042114910C211591169204
:10103C0003221792189019911A931B9309A803F085
:10104C003BF8E0B93F23019303230293002303935E
:10105C00082304934023059306934FF48062079270
:10106C000893012101A803F069FC50B94FF48022C8
:10107C000021084603F016FB1DB05DF804FBFFF7DA
:10108C0087FCFFF785FC00BF0048025800B5AFB0E5
:10109C00902200210AA80BF08DFE4FF401220023B0
:1010AC00CDE90023042302930C2203920493022320
:1010BC0005930693C02307930023089309934FF4D9
:1010CC0080531793684603F0D5FE10B92FB05DF826
:1010DC0004FBFFF75DFC000010B506F083FAFFF788
:1010EC0075FFFFF7D3FFFFF7A3FAFFF7BFFBFFF77F
:1010FC0051FCFFF77DFCFFF7A9FCFFF7D7FCFFF7CE
:10110C0023FDFFF777FDFFF7BDFDFFF7E9FDFFF7C7
:10111C0011FEFFF74BFEFFF787FE01F033F9FFF7E7
:10112C00C7FEFFF7F3FE00F0D9FFFFF76FFAFFF7EA
:10113C001DFFFFF733FF00F04DF900F003FA0446F2
:10114C0010F0010F28D00221184800F039F814F0E3
:10115C00020F26D00221164800F032F800F018FADF
:10116C0040F6B83006F07EFABF211C2000F0BAF829
:10117C00022006F077FA58211B2000F0B3F8D82192
:10118C001B2000F0AFF8FFF7F1FB0A4A0A490B48A5
:10119C0000F0D0F8002010BD0021044800F010F839
:1011AC00D5E70021024800F00BF8D7E734CE000851
:1011BC003CCE000810180020681B002060030020A3
:1011CC0038B505460C463849FFF79AF810B9374B35
:1011DC001C7038BD36492846FFF792F810B9334BCE
:1011EC005C70F6E733492846FFF78AF810B92F4BA5
:1011FC009C70EEE730492846FFF782F810B92B4B6C
:10120C00DC70E6E72D492846FFF77AF810B9274B32
:10121C001C71DEE72A492846FFF772F810B9234BF8
:10122C005C71D6E727492846FFF76AF810B91F4BBF
:10123C009C71CEE724492846FFF762F810B91B4B86
:10124C00DC71C6E721492846FFF75AF810B9174B4D
:10125C001C72BEE71E492846FFF752F810B9134B13
:10126C005C72B6E71B492846FFF74AF810B90F4BDA
:10127C009C72AEE718492846FFF742F810B90B4BA1
:10128C00DC72A6E715492846FFF73AF810B9074B68
:10129C001C739EE712492846FFF732F8002898D1B4
:1012AC00024B5C7395E700BF44CE0008942E0020DF
:1012BC0048CE00084CCE000854CE00085CCE000886
:1012CC0034CE000864CE00086CCE000870CE000846
:1012DC003CCE000878CE000880CE000888CE0008EE
:1012EC0090CE000830B583B08DF807008DF806104D
:1012FC000E4C00224FF40071204605F011FA0C4DF3
:10130C00642301220DF10701284608F0C3FF642372
:10131C0001220DF10601284608F0BCFF01224FF412
:10132C000071204605F0FCF903B030BD000C0258EA
:10133C008003002030B42DED028B88B090ED000BB3
:10134C0091ED004B90ED027B91ED022B27EE026BA1
:10135C0010EE046B90ED043B91ED048B03EE486BA7
:10136C0090ED065B91ED061B05EE416B8DED006B70
:10137C0024EE076B00EE026B03EE416B08EE056B7F
:10138C008DED026B27EE016B00EE086B04EE036B28
:10139C0002EE456B8DED046B27EE087B10EE017BA6
:1013AC0002EE037B04EE057B8DED067B002309E04A
:1013BC0002EBC30108A800EBC30050E90845C1E9E2
:1013CC0000450133032BF3DD08B0BDEC028B30BCC0
:1013DC007047000008B50748074B036000234360C3
:1013EC0007F064FA18B9054B01221A6008BDFFF723
:1013FC00CFFAF8E7881B00200018024824010020CF
:10140C0030B585B060F07F008DF80700204B1B686D
:10141C00012B05D0022B1ED09DF80F0005B030BD5E
:10142C001C4C00221021204605F07AF91A4D642339
:10143C0001220DF10701284608F02CFF642301223C
:10144C000DF10F01284609F091F8012210212046D8
:10145C0005F066F9E0E7114C00224FF4807120464C
:10146C0005F05EF90E4D642301220DF107012846AB
:10147C0008F010FF642301220DF10F01284609F03A
:10148C0075F801224FF48071204605F049F9C3E745
:10149C000000002000080258F82C0020000C025814
:1014AC008003002030B583B08DF807008DF806104E
:1014BC001F4B1B68012B03D0022B1CD003B030BD7B
:1014CC001C4C00221021204605F02AF91A4D6423E9
:1014DC0001220DF10701284608F0DCFE64230122ED
:1014EC000DF10601284608F0D5FE012210212046F8
:1014FC0005F016F9E2E7114C00224FF480712046FA
:10150C0005F00EF90E4D642301220DF1070128465A
:10151C0008F0C0FE642301220DF10601284608F0F4
:10152C00B9FE01224FF48071204605F0F9F8C5E7A9
:10153C000000002000080258F82C0020000C025873
:10154C008003002010B5114B01221A600F20FFF709
:10155C0057FF6B2810D000240C4B02221A600F206E
:10156C00FFF74EFF6B2809D014F0010F09D0074B81
:10157C0001221A60204610BD0124EDE744F002045C
:10158C00F2E7024B02221A60F4E700BF00000020D1
:10159C0008B53C211020FFF785FF68211120FFF7CB
:1015AC0081FF0C211320FFF77DFF08BDFEE7FEE74E
:1015BC00FEE7FEE7FEE770477047704708B506F098
:1015CC003FF808BD08B5024805F0AEFB08BD00BFEA
:1015DC00781A002008B5024805F0A6FB08BD00BF2C
:1015EC001C2E002008B5024805F09EFB08BD00BF6C
:1015FC008C14002008B5024805F096FB08BD00BF0E
:10160C00F01A002008B5024805F08EFB08BD00BF9B
:10161C00A018002008B5024805F086FB08BD00BFE5
:10162C00001A002008B5024809F009FA08BD00BFED
:10163C000804002008B5024806F090F808BD00BF69
:10164C000415002008B5024805F06EFB08BD00BF6C
:10165C00F815002008B5024801F014FC08BD00BFC5
:10166C00F063002008B5024808F0A2FB08BD00BFDB
:10167C009017002082B0074BD3F8F42042F00202FE
:10168C00C3F8F420D3F8F43003F002030193019B68
:10169C0002B070470044025830B58BB004460023AA
:1016AC00059306930793089309930368434A93425F
:1016BC0004D0434A934241D00BB030BD414BD3F8D8
:1016CC00D82042F02002C3F8D820D3F8D82002F05A
:1016DC0020020192019AD3F8E02042F00102C3F8F3
:1016EC00E020D3F8E03003F001030293029B0423C3
:1016FC000593032306930025079505A9324804F0AA
:10170C001FFF3248324B0360092343608560C5607C
:10171C004FF4806303614FF4006343614FF4005353
:10172C008361C5610562456205F03AF918B9274B2A
:10173C00A3659C63C0E7FFF72BF9F8E7214BD3F8BF
:10174C00E02042F08072C3F8E020D3F8E02002F0F1
:10175C0080720392039AD3F8E02042F00402C3F89B
:10176C00E020D3F8E03003F004030493049B4FF023
:10177C000061084605F08AFF1648174B0360732377
:10178C00436000238360C3604FF4806202614FF4B6
:10179C00006242614FF4005282614FF48072C26168
:1017AC004FF480320262436205F0FAF818B9094B23
:1017BC00A3659C6380E7FFF7EBF8F8E70020024095
:1017CC00006002580044025800000258001A002021
:1017DC0088000240F8150020B804024010B5B6B0DD
:1017EC000446002131913291339134913591B822D4
:1017FC0002A80BF0DFFA22681C4B9A4201D036B0DB
:10180C0010BD4FF400420023CDE902234FF080536A
:10181C001D9302A803F02EFB28BB154BD3F8EC202C
:10182C0042F48072C3F8EC20D3F8EC2002F48072FE
:10183C000092009AD3F8E02042F02002C3F8E02096
:10184C00D3F8E03003F020030193019BC0233193C4
:10185C0002233293002233923492359331A90548F6
:10186C0004F06EFECBE7FFF793F8D6E700D4004008
:10187C00004402580014025830B5B7B00446002199
:10188C0031913291339134913591B82202A80BF0F9
:10189C0091FA2268204B9A4201D037B030BD082211
:1018AC000023CDE902230023229302A803F0E2FADD
:1018BC0070BB1A4CD4F8E03043F02003C4F8E0308D
:1018CC00D4F8E03003F020030093009B0323319302
:1018DC00122332930025339534950423359331A983
:1018EC000F4804F02DFED4F8E83043F48003C4F81C
:1018FC00E830D4F8E83003F480030193019B2A46C6
:10190C000121212005F0F0FD212005F01FFEC4E788
:10191C00FFF73EF8CDE700BF0058004000440258E6
:10192C000014025810B5B0B00446B822002102A829
:10193C000BF040FA2268104B9A4201D030B010BD27
:10194C004FF400320023CDE902230023219302A897
:10195C0003F090FA68B9094BD3F8DC2042F040024E
:10196C00C3F8DC20D3F8DC3003F040030193019B77
:10197C00E4E7FFF70DF8EEE70018024800440258C0
:10198C002DE9F043B9B004460021339134913591DF
:10199C0036913791B82204A80BF00CFA2268424B0E
:1019AC009A4202D039B0BDE8F0834FF48032002364
:1019BC00CDE904230023189304A803F05BFA002854
:1019CC006FD13A4BD3F8DC2042F40072C3F8DC2020
:1019DC00D3F8DC2002F400720192019AD3F8E020D3
:1019EC0042F00802C3F8E020D3F8E02002F008022D
:1019FC000292029AD3F8E02042F04002C3F8E020B1
:101A0C00D3F8E03003F040030393039B402333935C
:101A1C000226349600243594032536950B273797E8
:101A2C00DFF88C9033A9484604F08AFD8023339369
:101A3C0034964FF00108CDF8D4803695379733A9FA
:101A4C00484604F07DFD4FF4007333933496CDF883
:101A5C00D48036953797DFF85C8033A9404604F084
:101A6C006FFD4FF4806333933496359436953797E6
:101A7C0033A9404604F064FD4FF4C05333933496BD
:101A8C00359436950A23379333A9404604F058FD14
:101A9C00224621467C2005F027FD7C2005F056FDD2
:101AAC0080E7FEF775FF8CE70024024800440258DB
:101ABC00000C02580018025800B58DB00023079393
:101ACC00089309930A930B930368414A934208D0F5
:101ADC00404A93422CD0404A934251D00DB05DF80D
:101AEC0004FB3E4BD3F8F02042F48052C3F8F020B4
:101AFC00D3F8F02002F480520192019AD3F8E0203E
:101B0C0042F00102C3F8E020D3F8E03003F0010307
:101B1C000293029BE023079302230893002309936B
:101B2C000A9305230B9307A92D4804F009FDD5E76B
:101B3C002A4BD3F8E82042F48042C3F8E820D3F8CB
:101B4C00E82002F480420392039AD3F8E02042F09A
:101B5C000202C3F8E020D3F8E03003F00203049350
:101B6C00049B4FF4604307930223089300230993CB
:101B7C000A9305230B9307A91A4804F0E1FCADE77F
:101B8C00164BD3F8E82042F40042C3F8E820D3F80F
:101B9C00E82002F400420592059AD3F8E02042F0C6
:101BAC000402C3F8E020D3F8E03003F004030693FA
:101BBC00069B4FF4E05307930223089300230993E9
:101BCC000A9306230B9307A9074804F0B9FC85E791
:101BDC000030014000380040003C004000440258F6
:101BEC0000000258000402580008025830B58BB0AF
:101BFC0004460023059306930793089309930368FF
:101C0C00B3F1804F0CD07D4A93424CD07C4A934226
:101C1C0000F093807B4A934200F0C3800BB030BD40
:101C2C00794BD3F8E82042F00102C3F8E820D3F84E
:101C3C00E82002F001020092009AD3F8E02042F072
:101C4C000102C3F8E020D3F8E03003F00103019364
:101C5C00019B012305930222069200250795089506
:101C6C00099305A9694804F06BFC6948694B03604A
:101C7C001423436040238360C5604FF48063036189
:101C8C004FF4805343614FF480438361C561056217
:101C9C00456204F085FE18B95D4BE3629C63BDE7B9
:101CAC00FEF776FEF8E7584BD3F8E82042F0020234
:101CBC00C3F8E820D3F8E83003F002030293029B48
:101CCC005548564B03601823436040238360002320
:101CDC00C3604FF4806202614FF4805242614FF452
:101CEC0080428261C3610362436204F059FEF0B921
:101CFC00494BA3629C634A484A4B036017234360D9
:101D0C00402383600023C3604FF4806202614FF470
:101D1C00805242614FF480428261C361036243622C
:101D2C0004F03EFE30B93E4B63629C6376E7FEF7EF
:101D3C002FFEDDE7FEF72CFEF5E7334BD3F8E8205A
:101D4C0042F00402C3F8E820D3F8E83003F00403AF
:101D5C000393039B3448354B03601F23436040239C
:101D6C0083600023C3604FF4806202614FF48052A1
:101D7C0042614FF480428261C3610362436204F0AA
:101D8C000FFE58B9284BE3629C63002211461E20BB
:101D9C0005F0AAFB1E2005F0D9FB3FE7FEF7F8FD86
:101DAC00F0E7194BD3F8E82042F00802C3F8E8201A
:101DBC00D3F8E83003F008030493049B1C481D4B34
:101DCC0003603A234360402383600023C3604FF4D5
:101DDC00806202614FF4805242614FF48042826112
:101DEC00C3610362436204F0DBFD18B9104B23633B
:101DFC009C6313E7FEF7CCFDF8E700BF000400403E
:101E0C0000080040000C004000440258000002583A
:101E1C001C2E002028000240F01A0020580002401E
:101E2C00A018002070000240781A00201000024018
:101E3C008C1400204000024082B00368114A934287
:101E4C0004D0114A93420FD002B070470F4BD3F815
:101E5C00E82042F08002C3F8E820D3F8E83003F021
:101E6C0080030093009BEFE7084BD3F8E82042F483
:101E7C008072C3F8E820D3F8E83003F48073019340
:101E8C00019BE1E7001C0040002000400044025888
:101E9C0070B58AB0002305930693079308930993B2
:101EAC000368B3F1804F0AD0404A934223D0404A92
:101EBC0093423AD03F4A93425ED00AB070BD3E4B3B
:101ECC00D3F8E02042F00202C3F8E020D3F8E0306F
:101EDC0003F002030193019B4FF4806305930223EB
:101EEC0006930793002308930123099305A933480C
:101EFC0004F026FBE1E7304BD3F8E02042F002027D
:101F0C00C3F8E020D3F8E03003F002030293029B05
:101F1C00302305930223069307930022089209931A
:101F2C0005A9264804F00CFBC7E7234BD3F8E020A7
:101F3C0042F00802C3F8E020D3F8E03003F00803C5
:101F4C000393039B4FF4304305930224069400251E
:101F5C000795089509941A4E05A9304604F0F0FA35
:101F6C004FF480430593069407940895099405A9AA
:101F7C00304604F0E5FAA0E70F4BD3F8E02042F02E
:101F8C000102C3F8E020D3F8E03003F0010304931E
:101F9C00049B0823059302230693079300220892BF
:101FAC00099305A9074804F0CBFA86E70004004022
:101FBC0000080040000C0040004402580004025885
:101FCC00000C02580000025810B5B8B004460021AD
:101FDC0033913491359136913791B82204A80AF097
:101FEC00E9FE2368384A934204D0384A934236D0EB
:101FFC0038B010BD02220023CDE904230023219325
:10200C0004A802F037FF38BB314BD3F8E82042F478
:10201C000022C3F8E820D3F8E82002F40022009252
:10202C00009AD3F8E02042F00202C3F8E020D3F883
:10203C00E03003F002030193019B4FF440733393A0
:10204C00022334930023359336930823379333A913
:10205C00204804F075FACBE7FEF79AFCD4E701228E
:10206C000023CDE904230023229304A802F002FFED
:10207C0030BB174BD3F8F02042F02002C3F8F0200D
:10208C00D3F8F02002F020020292029AD3F8E0205A
:10209C0042F00402C3F8E020D3F8E03003F004036C
:1020AC000393039BC0233393022334930023359370
:1020BC0036930723379333A9074804F041FA97E77F
:1020CC00FEF766FCD5E700BF004C00400014014051
:1020DC0000440258000402580008025808B503498D
:1020EC00034809F08DFD034B187008BDA82E002085
:1020FC0098CE0008A42E002008B513460A460146C7
:10210C00024807F019FA00B1012008BD9017002011
:10211C0008B513460A460146024807F07DFA00B19D
:10212C00012008BD9017002008B5034807F0CEFD2C
:10213C00043818BF012008BD9017002008B50146CF
:10214C00014807F005FD08BD9017002008B500F008
:10215C000DF908BD08B500F00FF908BD82B00123D8
:10216C008DF807309DF8070002B0704738B5FFF7BF
:10217C00F5FF012802D00225284638BD0446074841
:10218C0007F0B5FD05460028F6D14FF48041034811
:10219C0007F0F0FC0028EFD02546EDE79017002063
:1021AC0008B5074B01221A70FFF7BEFF20B9044A8D
:1021BC00137803F0FE031370014B187808BD00BFB1
:1021CC000400002010B50446FFF7D0FF10B1044BFB
:1021DC00187810BD2046FFF7E3FF014B1870F6E7A7
:1021EC000400002008B5FFF7DBFF08BD38B5054635
:1021FC0005F032FA044605F02FFA001BA84205D26E
:10220C00FFF792FF0028F6D1002001E04FF0FF30DD
:10221C0038BD000070B50C4615461E4647F23050CE
:10222C00FFF7E4FF002830DB324629462046FFF753
:10223C0063FF08B1012029E0154B00221A6005F05C
:10224C000BFA0446124B1B6833B905F005FA001B58
:10225C0047F22F539842F5D90D4B1B680BB901204F
:10226C0014E00B4B00221A6005F0F6F9044605F059
:10227C00F3F9001B47F22F53984204D8FFF754FF91
:10228C000028F4D102E0012000E0012070BD00BF65
:10229C002801002070B50C4615461E461C4B00222A
:1022AC001A6047F23050FFF7A1FF00282DDB3246B1
:1022BC0029462046FFF72CFF08B1012026E005F047
:1022CC00CBF90446124B1B6833B905F0C5F9001B5A
:1022DC0047F22F539842F5D90D4B1B680BB90120CF
:1022EC0014E00B4B00221A6005F0B6F9044605F019
:1022FC00B3F9001B47F22F53984204D8FFF714FF91
:10230C000028F4D102E0012000E0012070BD00BFE4
:10231C002C01002030B58BB0134B1B7813F001044B
:10232C001DD10846154603291CD8DFE801F0190217
:10233C00091001A8FFF702FF079B2B6020460FE056
:10234C0001A8FFF7FBFE089B2B80204608E001A8A4
:10235C00FFF7F4FE089B5B0A2B60204600E003208D
:10236C000BB030BD0420FBE704000020014B012220
:10237C001A6070472C010020014B01221A60704733
:10238C002801002008B501221049114809F03DFC34
:10239C0080B910490E4809F04FFC70B90E490C4831
:1023AC000AF06AFC60B90A4809F060FC58B905F0FB
:1023BC0081F808BDFEF7ECFAEBE7FEF7E9FAEDE77A
:1023CC00FEF7E6FAEFE7FEF7E3FAF0E70800002085
:1023DC00144F0020800000205C00002012230B8092
:1023EC00004870472800002004230B8000487047E9
:1023FC003C0000200023934217D230B40BE037345A
:10240C0001F8134000015C00013400250D55013327
:10241C00DBB2934207D2040FB0F1204FEFD230342D
:10242C0001F81340EEE730BC7047704738B50A4BE3
:10243C00186804331C6804331B68C01800D138BDFD
:10244C00064D0822A91CFFF7D5FF042205F1120145
:10245C002046FFF7CFFFF2E700E8F11F4000002015
:10246C0008B51A230B80FFF7E1FF014808BD00BF38
:10247C004000002008B50A4628B9054905480AF06D
:10248C007CF9034808BD024902480AF076F9F8E7DE
:10249C00F0510020ACCE000810B50A46034C214682
:1024AC0003480AF06AF9204610BD00BFF051002025
:1024BC00C8CE000808B50A4628B9054905480AF0EF
:1024CC005CF9034808BD024902480AF056F9F8E7DE
:1024DC00F0510020CCCE000808B50A4628B90549B1
:1024EC0005480AF04AF9034808BD024902480AF0B7
:1024FC0044F9F8E7F0510020D8CE000800207047CE
:10250C00002070470020704710B50146044C20464F
:10251C000AF0CBFB20460AF0D4FB002010BD00BF14
:10252C00144F002010B5064C0022064920460AF034
:10253C00AEFB054920460AF0B8FB002010BD00BFD9
:10254C00144F0020F05B0020F053002010B5B0B009
:10255C000446B822002102A80AF02CFC2268164B73
:10256C009A4201D030B010BD4FF480220023CDE947
:10257C0002234FF44013239302A802F07BFCB8B95A
:10258C0004F098FF0D4BD3F8D82042F00072C3F83A
:10259C00D820D3F8D83003F000730193019B0022AC
:1025AC0011464D2004F0A0FF4D2004F0CFFFD9E7D9
:1025BC00FEF7EEF9E4E700BF0000044000440258C7
:1025CC0008B500F2C441D0F8080509F065FB08BD58
:1025DC0008B501EBC10300EB8303D3F88822D0F8D4
:1025EC00080509F02BFC08BD08B501EBC10300EB95
:1025FC0083039A6CD0F8080509F089FC08BD08B56E
:10260C00D0F8080509F0C5FB08BD10B504460369F0
:10261C003BB1022B01D1012104E0FEF7B9F90121F4
:10262C0000E00021D4F8080509F094FBD4F8080563
:10263C0009F05EFB10BD000010B50446D0F808058B
:10264C0009F08BFB2268D2F8003E43F00103C2F87C
:10265C00003E236A23B1034A136943F00603136156
:10266C0010BD00BF00ED00E008B5D0F8080509F07A
:10267C0083FB08BD08B5D0F8080509F0B2FB08BD0E
:10268C0008B5D0F8080509F095FB08BD08B5D0F8D9
:10269C00080509F0BDFB08BD08B5D0F8080509F020
:1026AC00B9FB08BD0378012B01D00020704710B591
:1026BC00164BC3F80805C0F8C832154A1A6009222F
:1026CC005A60022119610022DA609961DA611A629A
:1026DC005A62DA621A635A63184600F0F4F890B939
:1026EC000A4C4FF40071204600F00DFF80220021AF
:1026FC00204600F0E4FE4FF4BA720121204600F0AF
:10270C00DEFE002010BDFEF743F9E9E7F063002080
:10271C0000000440D0F8C83211F0800F08D101F04D
:10272C007F0101EBC10103EB810191F87E0270473F
:10273C0001F07F0101EBC10103EB810191F83E0037
:10274C00704708B5D0F8C80200F0D9FA08BD0000EF
:10275C0000487047300100207047032805D8DFE897
:10276C0000F005040205012070470320704708B5EE
:10277C00D0F8C80200F041F9FFF7EFFF08BD10B523
:10278C0014461A462346D0F8C80200F017FAFFF791
:10279C00E4FF10BD08B5D0F8C80200F052FAFFF7FC
:1027AC00DCFF08BD08B5D0F8C80200F0D2FAFFF77C
:1027BC00D4FF08BD08B5D0F8C80200F00EFBFFF737
:1027CC00CCFF08BD08B5D0F8C80200F0E3F9FFF75C
:1027DC00C4FF08BD08B5D0F8C80200F099FAFFF79D
:1027EC00BCFF08BD08B5D0F8C80200F063FAFFF7CB
:1027FC00B4FF08BD2DE9F04782B0D0F8008001EBA2
:10280C00C10300EB83031A6DDB6C9A4255D8074663
:10281C000C46C1469B1A01EBC10200EB8202526CC2
:10282C009A4200D31A4602F1030A4FEA9A0A15E0BB
:10283C0006F1030A4FEA9A0A04EBC40507EB850577
:10284C00A96C3B7B0093B3B2E2B2404601F0ADF908
:10285C00AB6C3344AB642B6D1E442E6509EB4413F7
:10286C0003F510639B699BB2534512D304EBC4026E
:10287C0007EB8202116DD36C99420AD24BB15B1AF1
:10288C0004EBC40207EB8202566C9E42D0D31E4668
:10289C00CEE704EBC40007EB8007FA6C3B6D9A4261
:1028AC000FD804F00F040123A340D8F8344824EACD
:1028BC000304C8F83448002000E0012002B0BDE851
:1028CC00F0870020FAE7F0B58BB0002800F0938079
:1028DC000546046890F8BD342BB3032385F8BD344A
:1028EC00E36B13F4807F01D10023EB60286800F0C8
:1028FC0013FF2C4654F8107B6E460FCC0FC60FCC32
:10290C000FC694E8030086E803002B1D0ECB384657
:10291C0000F03CFE044658B1022385F8BD34012476
:10292C0020460BB0F0BD80F8BC34FFF70FFED4E7A7
:10293C000021286801F04EFB234616E003EBC3028E
:10294C0005EB8202012182F83D1082F83C30A2F89E
:10295C005630002182F840105164916403EBC3029D
:10296C0005EB8202D1640133DBB269688B42E5D39B
:10297C0016E004EBC40305EB8303002283F87D22ED
:10298C0083F87C4283F88022C3F88422C3F888221F
:10299C0004EBC40305EB8303C3F88C220134E4B2CB
:1029AC00A142E6D82C4654F8107B6E460FCC0FC6CD
:1029BC000FCC0FC694E8030086E803002B1D0ECB4A
:1029CC00384600F005FF044660B9002385F838301E
:1029DC00012385F8BD346B6A012B08D0286801F0FF
:1029EC00B6FA9DE7022385F8BD34012498E7284602
:1029FC0000F08EFDF2E7012492E7036890F8BC2406
:102A0C00012A1AD010B50446012280F8BC24DA6BD6
:102A1C0012F4807F02D1826A012A09D0206800F06A
:102A2C0075FE206801F085FA002084F8BC0410BD06
:102A3C009A6B42F480329A63F0E7022070470000F0
:102A4C0070B504460D460068066C00EB411303F5A7
:102A5C0030639A68E168012911D038498E4256D00A
:102A6C003DB905EBC50304EB8303D3F88C32002B83
:102A7C005ED0E9B22046FFF7ABFD002070BD12F02E
:102A8C00080F09D02E498E42F7D912F4004FF4D01A
:102A9C004FF400429A60F0E712F0200F02D020228F
:102AAC009A60EAE712F0280FE7D125498E4206D941
:102ABC0012F4004F03D04FF400429A60DDE705EBAF
:102ACC00C50204EB8202D2F89C121B69C3F31203F9
:102ADC00CB1AC2F890327DB905EBC50204EB820229
:102AEC00D2F88C226AB105EBC50204EB8202D2F853
:102AFC0088120B44C2F88832E9B22046FFF768FD11
:102B0C00BBE704F2C442012101F0A6FAF4E712F487
:102B1C00004F03D04FF400429A60AEE712F0200F42
:102B2C0001D020229A60E9B22046FFF751FDA4E7BC
:102B3C0004F2C442002101F08FFA9AE70A31544F93
:102B4C000A30544F38B5044603681D6C03EB41132F
:102B5C00D3F8081B0E4A954207D903F5306311F4DC
:102B6C00004F02D04FF400429A602046FFF728FD38
:102B7C00074B9D4202D9E368012B01D0002038BDE0
:102B8C0004F2C4420121206801F066FAF6E700BFA6
:102B9C000A30544F90F8BC34012B0DD010B50446BC
:102BAC00012380F8BC3480F83810006801F0B1F9CA
:102BBC00002084F8BC0410BD02207047F8B507460D
:102BCC000C4611F0800F27D101F00F0505EBC5065F
:102BDC00B60006F51E760644311D05EBC50500EB67
:102BEC008505002085F87D0204F00F040C708A60C6
:102BFC000B714A7802B14C83022B1DD097F8BC3470
:102C0C00012B1CD0012387F8BC34386800F0B8FEC7
:102C1C00002087F8BC04F8BD01F00F0000EBC001E8
:102C2C00890038313944043100EBC00007EB8000D7
:102C3C00012580F83D50D7E700234B71DEE70220D9
:102C4C00E9E710B504460A4611F0800F20D101F0D7
:102C5C000F0000EBC0039B0003F51E732344191DEA
:102C6C0000EBC00004EB8000002380F87D3202F002
:102C7C000F020A7094F8BC34012B19D0012384F88C
:102C8C00BC34206800F0C4FE002084F8BC0410BDE5
:102C9C0001F00F0000EBC0039B0038332344191DD7
:102CAC0000EBC00004EB8000012380F83D30DEE730
:102CBC000220ECE738B501F00F0404EBC4018900E5
:102CCC0001F51E710144043104EBC40500EB8505CC
:102CDC00C5F88822C5F88C320023C5F8903285F8E7
:102CEC007D3285F87C42C368012B05D0DAB20068CE
:102CFC0000F070FF002038BDC5F89822F6E701F00F
:102D0C000F0101EBC10100EB8101D1F8900270477A
:102D1C0038B501F00F0404EBC401890038310144CB
:102D2C00043104EBC40500EB8505AA64EB640023B5
:102D3C002B65012385F83D3085F83C40C368012B99
:102D4C0005D0DAB2006800F045FF002038BDAA6556
:102D5C00F7E738B501F00F054268954239D80446BB
:102D6C000B4611F0800F1FD101EBC101890001F559
:102D7C001E710144043103EBC30300EB83030022F7
:102D8C0083F87D2201238B700D7094F8BC34012BD9
:102D9C0021D0012384F8BC34206801F05FF88DB198
:102DAC00002084F8BC0438BD05EBC501890038311E
:102DBC000144043105EBC50300EB8303012283F8C6
:102DCC003D20DFE704F2C442217B206801F044F986
:102DDC00E6E70120E7E70220E5E701F00F03426890
:102DEC00934231D810B5044611F0800F1ED103EB7D
:102DFC00C301890001F51E710144043103EBC302C8
:102E0C0000EB8202002082F87D0200228A700B7097
:102E1C0094F8BC34012B19D0012384F8BC342068FD
:102E2C0001F049F8002084F8BC0410BD03EBC30189
:102E3C00890038310144043103EBC30200EB8202F8
:102E4C00012082F83D00E0E7012070470220ECE70A
:102E5C0008B511F0800F0CD101F00F0101EBC1018D
:102E6C00890001F51E7101440431006800F03EFE3A
:102E7C0008BD01F00F0101EBC1018900383101449B
:102E8C000431F2E72DE9F04F83B004460668304672
:102E9C0001F09CF810B103B0BDE8F08F3546074641
:102EAC00206801F062F80028F5D006F5006BDBF81D
:102EBC000830C3F30D23C4F8FC34206801F055F836
:102ECC0010F0020F04D02268536903F0020353611F
:102EDC00206801F04AF810F0100F14D022689369A2
:102EEC0023F010039361D6F8208008F00F09C8F383
:102EFC004343022B6AD0062B00F090802268936922
:102F0C0043F010039361206801F02FF810F4002FA8
:102F1C0040F09680206801F028F810F4802F40F0E3
:102F2C000281206801F021F80028C0F28881206815
:102F3C0001F01BF810F4006F0AD0DBF8083013F026
:102F4C00010F40F096812268536903F400635361CA
:102F5C00206801F00AF810F0006F15D02268536950
:102F6C0003F00063536194F8F434002B40F0858136
:102F7C00012184F8F41423685B6DC3F38303C4F854
:102F8C00F834204600F0D8FA206800F0EEFF10F478
:102F9C00805F40F07681206800F0E7FF10F4005F5E
:102FAC0040F0CC81206800F0E0FF10F0080F40F0FA
:102FBC00DD81206800F0D9FF10F0800F00F0F08167
:102FCC00B36923F08003B3610127DDE147F6F073A9
:102FDC0018EA030F92D04FEA181300934FEAC90274
:102FEC00019209EBC90A04EB8A0AC8F30A12DAF84F
:102FFC008812304600F00CFF009BC3F30A02DAF88B
:10300C0088321344CAF88832019B4B4404EB830387
:10301C00D3F890321A44CAF890226FE7082204F2CF
:10302C00C441304600F0F4FEC8F30A1809EBC9029B
:10303C0004EB8202D2F890324344C2F890325DE73E
:10304C00206800F096FF8046B94635E005EB491341
:10305C000122C3F8082B49462046FFF7F1FC3DE05E
:10306C0005EB49130822C3F8082B49462046FFF705
:10307C0069FD36E009EBC90304EB830393F87F3257
:10308C00012B44D005EB49130222C3F8082B1AF08C
:10309C00200F04D005EB49132022C3F8082B1AF497
:1030AC00005F05D005EB49134FF40052C3F8082B11
:1030BC0009F101094FEA5808B8F1000F3FF42AAFA3
:1030CC0018F0010FF4D05FFA89F3009319462068C9
:1030DC0000F05FFF824610F0010FB7D11AF0080F15
:1030EC00BED11AF0100F04D005EB49131022C3F80F
:1030FC00082B1AF0020FCAD0736913F0800FB9D0E5
:10310C00DBF8043043F48063CBF80430B2E709EB0E
:10311C00C90304EB8303002283F87F220099204625
:10312C00FFF7A8FAAEE7206800F02BFF8046B946FF
:10313C0025E000992046FFF757FA1AF0080F04D043
:10314C0005EB49130822C3F808291AF0100F04D014
:10315C0005EB49131022C3F808291AF0400F04D0CC
:10316C0005EB49134022C3F808291AF0020F43D18A
:10317C001AF0800F5ED109F101094FEA5808B8F135
:10318C00000F3FF4CEAE18F0010FF4D05FFA89F3C4
:10319C0000931946206800F005FF824610F0010FDD
:1031AC00CBD009F00F03012101FA03F2DBF8343024
:1031BC0023EA0203CBF8343005EB4913C3F80819A2
:1031CC00E3688B42B5D109EBC90304EB8303596C5B
:1031DC009A6C0A449A64B9F1000FAAD109EBC9039D
:1031EC0004EB8303DB6C002BA3D104F2C44201215A
:1031FC00206800F031FF9CE74946304600F092FA17
:10320C0009EBC90304EB830393F83F30012B05D082
:10321C0005EB49130222C3F80829A9E709EBC903F6
:10322C0004EB8303002283F83F2000992046FFF72C
:10323C0027FAEDE749462046FFF7DCFA9BE7DBF877
:10324C00043023F00103CBF8043094F8F434012B50
:10325C0008D02046FFF708FA2268536903F00043B0
:10326C00536164E6002184F8F414204600F064F9FC
:10327C00F2E72046FFF7E0F965E62046FFF7DCF9B8
:10328C0082E6DBF8043023F00103CBF80430102184
:10329C00206800F047FA1AE005EB47134FF67F3130
:1032AC00C3F80819D3F8002922F40012C3F8002936
:1032BC00C3F8081BD3F8002B22F40012C3F8002B20
:1032CC00D3F8002B42F00062C3F8002B013763687F
:1032DC00BB42E1D8DBF81C3043F00113CBF81C30B7
:1032EC00236BEBB1DBF8843043F00B03CBF8843069
:1032FC00DBF8443043F00B03CBF84430D6F80038FD
:10330C0023F4FE63C6F8003804F2C442217B206823
:10331C0000F0A2FE2268536903F4805353613AE62D
:10332C00DBF8142042F22B031343CBF81430DBF8F8
:10333C00103043F00B03CBF81030DFE7206800F0BF
:10334C007BFE206800F00CFB2061276801F040FC3C
:10335C000146227C384600F067F92046FFF755F904
:10336C002268536903F4005353611BE62046FFF7B0
:10337C0046F92268536903F00803536119E6F9B260
:10338C002046FFF765FD01376368BB4208D907EBA0
:10339C00C70304EB830393F87F32012BF3D1EEE7E1
:1033AC00206800F0E2FD10F4801F3CD1206800F092
:1033BC00DCFD10F4001F73D1206800F0D6FD10F076
:1033CC00804F6FD1206800F0D0FD10F0040F3FF457
:1033DC0062AD23685D6815F0040F6CD122685368E8
:1033EC002B43536057E501376368BB421DD905EB8E
:1033FC004713D3F8002907EBC70304EB830393F8B7
:10340C004030012BEFD1002AEDDA07EBC70304EBB8
:10341C008303012283F83F2067F07F01C9B2204665
:10342C00FFF716FDDFE70127DEE72268536903F497
:10343C0080135361BAE7013362689A422AD905EBCB
:10344C004312D2F8001B03EBC30204EB820292F886
:10345C008022012AEFD10029EDDA01F48031D4F871
:10346C00FC2402F001029142E5D103EBC30204EB10
:10347C008202012182F87F12B26942F08002B261AD
:10348C00726912F0800FD6D1DBF8043043F400736C
:10349C00CBF804302268536903F4001353618BE7B3
:1034AC000123C9E72046FFF7F1F82268536903F0BE
:1034BC008043536186E72046FFF7EEF88EE730B481
:1034CC000468606A19B940EA0240A06218E00D462F
:1034DC00A36A00EB13400023691E8B4209D203F14F
:1034EC00400104EB8101496800EB11400133DBB270
:1034FC00F2E740EA024005F13F0104EB810148602C
:10350C00002030BC704703685962002070470000EF
:10351C00034602680121C0F80015002083F8F4046A
:10352C00936943F000639361516D024B0B435365F8
:10353C00704700BF030000107047000082B00023EA
:10354C000193019B01330193019A0F4B9A4215D8B9
:10355C000369002BF5DA00230193036943F001039F
:10356C000361019B01330193019A074B9A4208D8DE
:10357C00036913F0010FF4D1002000E0032002B026
:10358C0070470320FBE700BF400D030084B010B56B
:10359C00044603A880E80E00089B012B1DD1A36BE9
:1035AC0023F48033A363E2681D4B1340E360E368AC
:1035BC0023F44013E3600F9B012B09D02046FFF747
:1035CC00BDFF059B012B1BD0BDE8104004B070471C
:1035DC00E36843F48013E360F0E7E36843F04003EF
:1035EC00E3602046FFF7AAFF0C9B23B9A36B43F4BF
:1035FC008033A363E5E7A36B23F48033A363E0E795
:10360C00E36D9BB2E365E26D064B1343E365A36880
:10361C0043F00603A360A36843F02003A360D3E741
:10362C00BFFFBDFF0000EE03022A0AD00921C268C9
:10363C0022F47052C260C36843EA8123C360002045
:10364C007047204B0B44204A934229D91F4B0B4403
:10365C001F4A934226D91F4B0B441F4A934223D92E
:10366C001E4B0B441E4A934220D31E4B0B441E4A46
:10367C0093421DD91D4B0B441D4A93421AD31D4B2B
:10368C000B441D4A934217D31C4B0B441C4A9342C8
:10369C0014D31C4B0B441C4A934211D20721C6E78E
:1036AC000F21C4E70E21C2E70D21C0E70C21BEE7B4
:1036BC000B21BCE70A21BAE70921B8E70821B6E7D4
:1036CC000621B4E7405327FFFF340C00401E1BFFBC
:1036DC003F420F0000DC0BFF7F4F1200808CF9FE85
:1036EC0020D6130060B6E5FE5FE3160000D3CEFED5
:1036FC0040771B00C05BB3FEC091210000CA91FE55
:10370C0020753800E05459FEE09C4100836843F07A
:10371C000103836000207047836823F001038360FA
:10372C000020704782B000230193019B0133019369
:10373C00019A0F4B9A4215D80369002BF5DA002336
:10374C000193890141F020010161019B0133019337
:10375C00019A074B9A4208D8036913F0200FF4D151
:10376C00002000E0032002B070470320FBE700BFFD
:10377C00400D030082B000230193019B01330193A0
:10378C00019A0E4B9A4213D80369002BF5DA0023E9
:10379C00019310230361019B01330193019A074BA1
:1037AC009A4208D8036913F0100FF4D1002000E0FE
:1037BC00032002B070470320FBE700BF400D03005D
:1037CC00D0F800381943C0F80018002070470000EA
:1037DC0084B02DE9F843044609A880E80E0025467C
:1037EC00002306E003F1400204EB82020021516049
:1037FC0001330E2BF6D9DDF84C80B8F1000F24D133
:10380C00D4F8043843F00203C4F80438A36B23F44F
:10381C000013A363236843F040032360236843F041
:10382C00800323600023C4F8003E04F50066D4F83E
:10383C000038C4F800380E9B012B10D10C9B4BB9EF
:10384C0000212046FFF7BCFF0DE0A36B43F40013EF
:10385C00A363E7E701212046FFF7B2FF03E0032152
:10386C002046FFF7ADFF10212046FFF75BFF814696
:10387C0008B14FF001092046FFF77CFF08B14FF06B
:10388C000109002333617361F3610AE0C3B94FF09E
:10389C000060C2F8000900220A614FF67F328A608C
:1038AC000133099F9F4210D905EB431202F51061B9
:1038BC00D2F800090028E9DB0020C2F80009EAE789
:1038CC004FF09040C2F80009E5E700230AE0BBB1D5
:1038DC004FF09040C2F8000B00220A614FF67F3285
:1038EC008A6001339F4210D905EB431202F5306117
:1038FC00D2F8000B0028EADB0020C2F8000BEBE743
:10390C004FF00060C2F8000BE6E7336923F48073D4
:10391C0033610023A3616FF0804363610B9B1BB980
:10392C00A36943F01003A361A2690B4B1343A3617A
:10393C000F9B1BB1A36943F00803A361B8F1010FFE
:10394C0004D04846BDE8F84304B07047A269034B65
:10395C001343A361F5E700BF00383C80040000402E
:10396C00D0F8083813F0060305D0062B18BF022B2D
:10397C0003D102207047002070470F2070470000D1
:10398C0070B40C784B78012B20D0D0F81C3804F094
:10399C000F060122B24043EA0243C0F81C3800EB88
:1039AC004410D0F8003B13F4004F0CD1D0F8002B8E
:1039BC008B68C3F30A03097943EA81431343134A1F
:1039CC001A43C0F8002B002070BC7047D0F81C289C
:1039DC0004F00F06B3409BB21343C0F81C3800EB45
:1039EC004410D0F8003913F4004FECD1D0F8002972
:1039FC008B68C3F30A03097943EA814343EA84548D
:103A0C001443024B2343C0F80039DCE7008000105C
:103A1C0030B40B784A78012A24D000EB4313D3F846
:103A2C00002B002A50DBD0F83C580A7802F00F0229
:103A3C00012404FA02F225EA0242C0F83C28D0F82C
:103A4C001C28097801F00F018C4022EA0444C0F8CC
:103A5C001C48D3F8001B234A0A40C3F8002B002053
:103A6C0030BC704700EB4313D3F80029002A1EDB4F
:103A7C00D0F83C580A7802F00F02012404FA02F242
:103A8C0092B225EA0202C0F83C28D0F81C2809782A
:103A9C0001F00F018C40A4B222EA0404C0F81C48C7
:103AAC00D3F80019104A0A40C3F80029D7E7D3F815
:103ABC00002942F00062C3F80029D3F8002942F033
:103ACC008042C3F80029D3E7D3F8002B42F0006200
:103ADC00C3F8002BD3F8002B42F08042C3F8002B24
:103AEC00A1E700BF0078F3EF007833EC30B482B07C
:103AFC000346002201920446487801280AD00A782D
:103B0C0003EB4212D2F8000B00282CDB002002B091
:103B1C0030BC70470A7803EB4212D2F80059002DE2
:103B2C0001DB0020F3E7D2F8005945F00065C2F83C
:103B3C0000590A7803EB4213D3F8002942F0804273
:103B4C00C3F80029019B01330193019A42F21073CF
:103B5C009A42DCD80B7804EB4313D3F80039002BD2
:103B6C00F0DB0020D3E7D2F8000B40F00060C2F885
:103B7C00000B087803EB4013D3F8002B42F0804283
:103B8C00C3F8002B019B01330193019A42F210738D
:103B9C009A4208D80B7804EB4313D3F8003B002B64
:103BAC00F0DB0020B3E70120B1E770B49DF80C40C6
:103BBC0064B903339D08AC4208D200EB023303F521
:103BCC00805351F8046B1E600134F4E7002070BC84
:103BDC0070470000F0B583B00C784B78012B2DD0DA
:103BEC0000EB441606F530631F69864D3D401D61A0
:103BFC001F69854D3D401D61002C40F0C7800C694C
:103C0C000CB18C680C618C680C621D69C4F31204D5
:103C1C002C431C611C6944F400241C61012A00F033
:103C2C00D8800B79012B00F0DA80D6F8003B43F0FA
:103C3C000443C6F8003B002003B0F0BD0B6973BB16
:103C4C0000EB4413D3F810696F4D3540C3F810598D
:103C5C00D3F8105945F40025C3F81059D3F810695E
:103C6C00684D3540C3F81059012A4DD000EB44146F
:103C7C00D4F8003943F00443C4F800390B79012B14
:103C8C006BD00B69002BD6D0D0F834380A7802F000
:103C9C000F0101228A401343C0F83438CBE700EB04
:103CAC00441303F510631E69564D35401D611E69A2
:103CBC00554D35401D61D4B90E698D68AE4200D9A1
:103CCC000D611D6945F400251D611D690E69C6F362
:103CDC00120635431D610D79012DC5D11D6925F0E5
:103CEC00C0451D611D6945F000551D61BCE71E698D
:103CFC000D698F683D44013DB5FBF7F5434F07EA6D
:103D0C00C54535431D61E0E7CB691BB100EB44129F
:103D1C00C2F814390B79012B08D000EB4410D0F801
:103D2C00003943F00443C0F8003984E7D0F8083870
:103D3C0013F4807F08D100EB4412D2F8003943F021
:103D4C000053C2F80039E8E700EB4412D2F800390E
:103D5C0043F08053C2F80039DFE7D0F8083813F489
:103D6C00807F0CD1D4F8003943F00053C4F80039EB
:103D7C0000920B8A0A78C968FFF717FF5BE7D4F843
:103D8C00003943F08053C4F80039F1E70C6954B999
:103D9C001C698D68C5F312052C431C611C6944F425
:103DAC0000241C613AE78D682C44013CB4FBF5F40B
:103DBC00A7B205FB07F50D621D69144F07EAC44451
:103DCC002C431C611C690D6AC5F312052C431C6144
:103DDC0024E7CA68002A3FF424AF5A6121E7D0F8DF
:103DEC00083813F4807F06D1D6F8003B43F000531B
:103DFC00C6F8003B19E7D6F8003B43F08053C6F8F1
:103E0C00003B12E70000F8FFFFFF07E00000F81F7F
:103E1C00F0B482B0074608463E46950802F003020D
:103E2C000023AB4206D206F58054246840F8044BBC
:103E3C000133F6E77AB107F580573B68019300250B
:103E4C00EBB2DC00019BE34000F8013B0135013A89
:103E5C0092B2002AF4D102B0F0BC70470B784A78C9
:103E6C00012A14D000EB4310D0F8002B002A06DBFB
:103E7C002BB1D0F8003B23F08043C0F8003BD0F8C6
:103E8C00003B43F40013C0F8003B0020704700EBEC
:103E9C004310D0F80029002A06DB2BB1D0F80039EA
:103EAC0023F08043C0F80039D0F8003943F40013F4
:103EBC00C0F80039E9E70B784A78012A0ED000EBFC
:103ECC004310D0F8003B23F40013C0F8003B0B79EF
:103EDC00023BDBB2012B15D90020704700EB4310DD
:103EEC00D0F8003923F40013C0F800390B79023BE9
:103EFC00DBB2012BF0D8D0F8003943F08053C0F876
:103F0C000039E9E7D0F8003B43F08053C0F8003BA0
:103F1C00E2E7D0F8003823F4FE63C0F80038D0F89C
:103F2C000038090101F4FE611943C0F800180020A3
:103F3C007047D0F8003E23F00303C0F8003ED0F8E1
:103F4C00043823F00203C0F8043800207047D0F87E
:103F5C00003E23F00303C0F8003ED0F8043843F0D1
:103F6C000203C0F804380020704742698069104091
:103F7C007047D0F8183800F50060C0691840000C84
:103F8C007047D0F8183800F50060C069184080B24E
:103F9C00704700EB4111D1F8082B00F50060406927
:103FAC001040704710B4D0F81048D0F8343801F0F5
:103FBC000F02D340DB01DBB2234300EB411000F5D1
:103FCC001060806818405DF8044B7047406900F041
:103FDC000100704738B50546C36823F0C043C36081
:103FEC00012913D019BBC36843F08043C36000247C
:103FFC00012003F037FB01342846FFF7E7FF08B137
:10400C00312CF5D9322C14D0002038BDC36843F0C4
:10401C000053C3600024012003F024FB0134284624
:10402C00FFF7D4FF0128EDD0312CF4D9EAE70120B9
:10403C00EBE70120E9E70000D0F80029054B13401D
:10404C00C0F80039D0F8043843F48073C0F8043851
:10405C000020704700F8FFFF10B4046C154B9C4215
:10406C0003D9D0F8003B002B16DB0024C0F8104B12
:10407C00D0F8104B44F40024C0F8104BD0F8104B7F
:10408C0044F01804C0F8104BD0F8104B44F0C04466
:10409C00C0F8104B012903D000205DF8044B704789
:1040AC00C0F8142BD0F8003B43F08023C0F8003B41
:1040BC00F2E700BF0A30544F002800F0D78238B521
:1040CC000446036813F0010F25D0AA4A136903F0C4
:1040DC003803926A102B15D0182B0FD06368B3F5E8
:1040EC00803F3FD0002B53D1A24B1A6822F4803270
:1040FC001A601A6822F480221A6038E002F0030277
:10410C00022AEBD19B4B1B6813F4003F03D063686E
:10411C00002B00F0AD82236813F0020F00F08880B2
:10412C00944A1369926A13F038035AD0182B55D05D
:10413C00E368002B00F0A9808E490A6822F019026E
:10414C0013430B6003F088FA05468A4B1B6813F087
:10415C00040F40F0918003F07FFA401B0228F4D941
:10416C0003208CE2834A136843F480331360636842
:10417C002BB303F071FA05467E4B1B6813F4003F1A
:10418C00C9D103F069FA401B6428F5D9032076E203
:10419C00B3F5A02F09D0774B1A6822F480321A603D
:1041AC001A6822F480221A60E1E7724B1A6842F412
:1041BC0080221A601A6842F480321A60D7E703F042
:1041CC004BFA05466B4B1B6813F4003FA3D003F06E
:1041DC0043FA401B6428F5D9032050E212F0030F78
:1041EC00A6D1644B1B6813F0040F03D0E368002BBB
:1041FC0000F040825F4A136823F01903E1680B4317
:10420C00136003F029FA05465A4B1B6813F0040F90
:10421C0006D103F021FA401B0228F5D903202EE227
:10422C00544A536823F0FE43216943EA0163536007
:10423C00236813F0100F51D04E4A136903F0380362
:10424C00926A082B39D0182B33D0E369002B68D035
:10425C00484A136843F08003136003F0FDF90546E8
:10426C00444B1B6813F4807F52D103F0F5F9401BCB
:10427C000228F5D9032002E23E4A536823F0FE439C
:10428C00216943EA01635360D2E73A4A136823F089
:10429C000103136003F0E0F90546364B1B6813F07D
:1042AC00040FC5D003F0D8F9401B0228F5D9032020
:1042BC00E5E102F00302012AC7D12E4B1B6813F46F
:1042CC00807F03D0E369802B40F0D681294AD368E4
:1042DC0023F07C53216A43EA0163D360236813F013
:1042EC00080F49D0636983B3224A536F43F001032B
:1042FC00536703F0B1F905461E4B5B6F13F0020FC9
:10430C003AD103F0A9F9401B0228F5D90320B6E1F4
:10431C00184AD36823F07C53216A43EA0163D360C3
:10432C00DCE7144A136823F08003136003F094F95C
:10433C000546104B1B6813F4807FCFD003F08CF92B
:10434C00401B0228F5D9032099E10A4A536F23F048
:10435C000103536703F080F90546064B5B6F13F0BE
:10436C00020F09D003F078F9401B0228F5D903207D
:10437C0085E100BF00440258236813F0200F29D0B8
:10438C00A3699BB1A84A136843F48053136003F0EC
:10439C0063F90546A44B1B6813F4005F1AD103F0B4
:1043AC005BF9401B0228F5D9032068E19E4A13688B
:1043BC0023F48053136003F04FF905469A4B1B68A6
:1043CC0013F4005F06D003F047F9401B0228F5D91F
:1043DC00032054E1236813F0040F21D1636A002BEE
:1043EC0000F04C81904A126902F03802182A00F051
:1043FC00EA80022B75D08C4A136823F0807313600B
:10440C0003F02AF90446884B1B6813F0007F00F078
:10441C00D88003F021F9001B0228F4D903202EE1E7
:10442C00824A136843F48073136003F015F9054650
:10443C007E4B1B6813F4807F06D103F00DF9401BF3
:10444C006428F5D903201AE1A368012B0AD00BBB11
:10445C00754B1A6F22F001021A671A6F22F00402D0
:10446C001A6704E0704A136F43F001031367A368E3
:10447C0033B303F0F1F805466B4B1B6F13F0020FCF
:10448C00ACD103F0E9F8401B41F288339842F3D9E0
:10449C000320F4E0052B09D0634B1A6F22F00102C4
:1044AC001A671A6F22F004021A67E0E75E4B1A6F64
:1044BC0042F004021A671A6F42F001021A67D6E73B
:1044CC0003F0CAF80546584B1B6F13F0020F85D04A
:1044DC0003F0C2F8401B41F288339842F3D9032011
:1044EC00CDE0514A136823F08073136003F0B4F8E5
:1044FC0005464D4B1B6813F0007F06D003F0ACF85B
:10450C00401B0228F5D90320B9E0474B996A484A69
:10451C000A40A16AE06A41EA00110A439A62226BDE
:10452C00013AC2F30802616B0139490289B20A43AC
:10453C00A16B0139090401F4FE010A43E16B013955
:10454C00090601F0FE410A431A63DA6A22F00102FD
:10455C00DA62596B374A0A40A16C42EAC1025A63CB
:10456C00DA6A22F00C02216C0A43DA62DA6A22F06F
:10457C000202616C0A43DA62DA6A42F48032DA626D
:10458C00DA6A42F40032DA62DA6A42F48022DA62DF
:10459C00DA6A42F00102DA621A6842F080721A603A
:1045AC0003F05AF80446204B1B6813F0007F06D129
:1045BC0003F052F8001B0228F5D903205FE000201D
:1045CC005DE000205BE018498A6A086B012B57D02C
:1045DC0002F00303A16A8B4254D1C2F30512E36AC1
:1045EC009A4251D1C0F30802236B013B9A424DD140
:1045FC00C0F34622636B013B9A4249D1C0F3064299
:10460C00A36B013B9A4245D1C0F30660E36B013BBF
:10461C00984241D1044B5B6BC3F3CC03A26C9A421E
:10462C000AD100202BE000BF004402580048025879
:10463C000CFCFFFF0700FFFF184AD36A23F00103AD
:10464C00D36203F009F8054603F006F8A842FBD044
:10465C00124A516B124B0B40A16C43EAC1035363DA
:10466C00D36A43F00103D362002008E001207047B5
:10467C00012004E0012002E0012000E0002038BD10
:10468C000120FCE70120FAE70120F8E70120F6E71A
:10469C000120F4E70120F2E70120F0E70044025882
:1046AC000700FFFF70B588B00C46154610BB234EB3
:1046BC00D6F8E03043F00103C6F8E030D6F8E0302D
:1046CC0003F001030193019B4FF4807303930223C6
:1046DC0004930323069300230593079303A9184817
:1046EC0001F02EFF336923F0FE732C431C4334611D
:1046FC0008B070BD114ED6F8E03043F00403C6F894
:10470C00E030D6F8E03003F004030293029B4FF440
:10471C00007303930223049303230693002305934E
:10472C00079303A9074801F00BFF336923F07E437D
:10473C0044EAC5141C433461DAE700BF0044025854
:10474C000000025800080258744B1B6903F0380330
:10475C00102B00F0DF80182B10D00BB17048704775
:10476C006E4B1B6813F0200F00F0D6806B4B186853
:10477C00C0F3C1006B4B23FA00F0704710B4674ACA
:10478C00916A01F00301946AC4F30510D36A03F033
:10479C000103526BC2F3CC0203FB02F307EE903A17
:1047AC00F8EE677A14F47C7F00F09480012966D0CF
:1047BC00022900F09280E1B107EE100AF8EE476A88
:1047CC009FED596A86EE267A544B1B6BC3F3080394
:1047DC0006EE903AF8EE666A9FED546A67EE867ABA
:1047EC0076EEA77AF7EE006A77EEA67A27EE277AAE
:1047FC0061E04A4B1B6813F0200F23D047490A682D
:10480C00C2F3C102474BD34007EE103AF8EE476AA9
:10481C0007EE100AB8EE476A86EE867A0B6BC3F386
:10482C00080306EE903AF8EE666A9FED406A67EE72
:10483C00867A76EEA77AF7EE006A77EEA67A27EEFE
:10484C00277A38E007EE100AF8EE476A9FED386ACF
:10485C0086EE267A314B1B6BC3F3080306EE903AB7
:10486C00F8EE666A9FED316A67EE867A76EEA77A85
:10487C00F7EE006A77EEA67A27EE277A1BE007EEB2
:10488C00100AF8EE476A9FED286A86EE267A234BCB
:10489C001B6BC3F3080306EE903AF8EE666A9FEDC5
:1048AC00236A67EE867A76EEA77AF7EE006A77EEE1
:1048BC00A67A27EE277A194B1B6BC3F346230133D9
:1048CC0007EE903AF8EE677AC7EE276AFCEEE67AC6
:1048DC0017EE900A5DF8044B704707EE100AF8EEDD
:1048EC00476A9FED146A86EE267A0C4B1B6BC3F35A
:1048FC00080306EE903AF8EE666A9FED0C6A67EED6
:10490C00867A76EEA77AF7EE006A77EEA67A27EE2D
:10491C00277AD0E70848704702487047004402588D
:10492C0000093D000090D0030024744A00000039B7
:10493C000024744C20BC3E4C80F0FA02002800F09D
:10494C00328170B50D4604469B4B1B6803F00F0378
:10495C008B420BD2984A136823F00F030B4313605E
:10496C00136803F00F038B4240F01F81236813F090
:10497C00040F0CD02269914B9B6903F070039A428F
:10498C0005D98E498B6923F070031A438A61236819
:10499C0013F0080F0CD06269884BDB6903F07003CD
:1049AC009A4205D98549CB6923F070031A43CA6131
:1049BC00236813F0100F0CD0A269804BDB6903F451
:1049CC00E0639A4205D97D49CB6923F4E0631A432D
:1049DC00CA61236813F0200F0CD0E269774B1B6A75
:1049EC0003F070039A4205D974490B6A23F07003E3
:1049FC001A430A62236813F0020F0CD0E2686F4B63
:104A0C009B6903F00F039A4205D96C498B6923F01B
:104A1C000F031A438A61236813F0010F41D0674AD0
:104A2C00936923F47063A1680B4393616368022B51
:104A3C000AD0032B27D0012B2CD0604A126812F01D
:104A4C00040F06D10120ADE0126812F4003F00F013
:104A5C00AE805A490A6922F0070213430B6102F037
:104A6C00FBFD0646554B1B6903F038036268B3EB3C
:104A7C00C20F16D002F0F0FD801B41F28833984231
:104A8C00F0D903208EE04D4A126812F0007FE0D17D
:104A9C00012087E0494A126812F4807FD9D10120A5
:104AAC0080E0236813F0020F0CD0E268434B9B6943
:104ABC0003F00F039A4205D240498B6923F00F0390
:104ACC001A438A613C4B1B6803F00F03AB420AD9B3
:104ADC00394A136823F00F032B431360136803F058
:104AEC000F03AB4265D1236813F0040F0CD022697D
:104AFC00324B9B6903F070039A4205D22F498B69A4
:104B0C0023F070031A438A61236813F0080F0CD04A
:104B1C0062692A4BDB6903F070039A4205D227497C
:104B2C00CB6923F070031A43CA61236813F0100F8A
:104B3C000CD0A269214BDB6903F4E0639A4205D2E5
:104B4C001E49CB6923F4E0631A43CA61236813F04E
:104B5C00200F0CD0E269194B1B6A03F070039A42C8
:104B6C0005D216490B6A23F070031A430A62FFF749
:104B7C00EBFD12498B69C3F30323114AD35C03F099
:104B8C001F03D8408B6903F00F03D35C03F01F03A2
:104B9C0020FA03F30B4A13600B4B18600B4B18688D
:104BAC0002F0F8FC70BD012070470120FAE70120EB
:104BBC00F8E70120F6E700BF00200052004402583D
:104BCC0018CF00087C000020780000207400002022
:104BDC0008B5FFF7B9FD0B4A9369C3F303230A49E0
:104BEC00CB5C03F01F0320FA03F3926902F00F026F
:104BFC00885C00F01F0023FA00F0044A1060044A9D
:104C0C00136008BD0044025818CF00087C00002037
:104C1C007800002008B5FFF7DBFF054BDB69C3F319
:104C2C000213044AD35C03F01F03D84008BD00BF35
:104C3C000044025818CF000808B5FFF7C9FF054B10
:104C4C00DB69C3F30223044AD35C03F01F03D8408F
:104C5C0008BD00BF0044025818CF0008404B9B6AA7
:104C6C0003F00303032B79D070B505460E463C4A7E
:104C7C00136823F08063136002F0EEFC0446384B9B
:104C8C001B6813F0006F06D002F0E6FC031B022B2E
:104C9C00F5D9032070BD324B9A6A22F47C32296814
:104CAC0042EA01329A626A68013AC2F30802A968C0
:104CBC000139490289B20A43E9680139090401F44E
:104CCC00FE010A4329690139090601F0FE410A4334
:104CDC009A63DA6A22F0C00269690A43DA62DA6A14
:104CEC0022F02002A9690A43DA62DA6A22F0100281
:104CFC00DA62D96B1B4A0A40E96942EAC102DA63FB
:104D0C00DA6A42F01002DA62C6B91A46DB6A43F478
:104D1C000023D362124A136843F08063136002F0DD
:104D2C009BFC04460E4B1B6813F0006F14D102F071
:104D3C0093FC001B0228F5D90320ABE7012E05D00C
:104D4C00074AD36A43F40013D362E3E7044AD36AF5
:104D5C0043F48013D362DDE700209BE7012070470A
:104D6C00004402580700FFFF404B9B6A03F003030B
:104D7C00032B79D070B505460E463C4A136823F0D8
:104D8C008053136002F068FC0446384B1B6813F028
:104D9C00005F06D002F060FC031B022BF5D9032048
:104DAC0070BD324B9A6A22F07C72296842EA015239
:104DBC009A626A68013AC2F30802A9680139490289
:104DCC0089B20A43E9680139090401F4FE010A4376
:104DDC0029690139090601F0FE410A431A64DA6AAD
:104DEC0022F4406269690A43DA62DA6A22F40072D8
:104DFC00A9690A43DA62DA6A22F48072DA62596CBF
:104E0C001B4A0A40E96942EAC1025A64DA6A42F46E
:104E1C008072DA62C6B91A46DB6A43F48003D36245
:104E2C00124A136843F08053136002F015FC0446D9
:104E3C000E4B1B6813F0005F14D102F00DFC001B2D
:104E4C000228F5D90320ABE7012E05D0074AD36A17
:104E5C0043F08073D362E3E7044AD36A43F400035C
:104E6C00D362DDE700209BE7012070470044025825
:104E7C000700FFFFF8B50446016801F0006200234B
:104E8C00134330D0436EB3F5001F26D00ED8EBB1D0
:104E9C00B3F5801F07D102210830FFF7DFFE05466E
:104EAC0045B12E4621E0012635461EE0B3F5401FE4
:104EBC0009D10025A84A136D23F44013616E0B43EE
:104ECC001365002611E0012635460EE0A24AD36A8E
:104EDC0043F40033D3620025ECE702212830FFF7BE
:104EEC0043FF0546DCE700263546216801F4807255
:104EFC000023134314D0A36D042B37D8DFE803F041
:104F0C0003282F080800944AD36A43F40033D36271
:104F1C007DBB914A136D23F00703A16D0B43136501
:104F2C00216801F480620023134336D0D4F8A430F6
:104F3C00B3F5800F55D021D8002B4CD0B3F5001F02
:104F4C0019D1002104F10800FFF788FE05461BE08B
:104F5C00002104F10800FFF781FE0546D8E7002187
:104F6C0004F12800FFF700FF0546D1E7012635467E
:104F7C00D6E72E46D4E7012635460EE0B3F5000FF2
:104F8C0002D0B3F5200F20D195BB734A936D23F457
:104F9C006003D4F8A4100B439365216801F40062FC
:104FAC000023134339D0D4F8A830B3F1007F5CD080
:104FBC0023D8002B53D0B3F1807F1BD1002104F1F7
:104FCC000800FFF74BFE05461DE0B3F5C00FDBD024
:104FDC0001263546E1E7604AD36A43F40033D362D5
:104FEC00D2E7002104F12800FFF7BEFE0546CBE70F
:104FFC002E46D2E7012635460FE0B3F1806F02D082
:10500C00B3F1A06F25D1002D36D1534A936D23F007
:10501C00E063D4F8A8100B439365216801F000728B
:10502C000023134331D0E36C202B45D029D833B166
:10503C00102B23D1484AD36A43F40033D362002D9A
:10504C0041D1454AD36C23F03003E16C0B43D3645C
:10505C001BE0B3F1407FD6D001263546DDE73E4A52
:10506C00D36A43F40033D362CDE7002104F1280066
:10507C00FFF77AFE0546C6E72E46CEE701263546F3
:10508C0003E0302BDBD001263546216801F4805239
:10509C00002313432BD0E36DB3F5005F4FD017D82B
:1050AC00002B46D0B3F5805F0FD1002104F108002E
:1050BC00FFF7D4FD054611E0022104F10800FFF7CB
:1050CC00CDFD0546BBE72E46DFE7012635460EE053
:1050DC00B3F5405F02D0B3F5804F27D1002D35D109
:1050EC001D4A136D23F4E043E16D0B4313652168F6
:1050FC0001F40052002313433BD0236EB3F5003F61
:10510C0058D02BD843B1B3F5803F21D1012104F104
:10511C000800FFF7A3FD0546002D52D10E4A136D72
:10512C0023F4E023216E0B43136522E00126354660
:10513C00DDE7094AD36A43F40033D362CEE700219A
:10514C0004F12800FFF710FE0546C7E72E46CEE710
:10515C00012635460DE000BF00440258B3F5802F00
:10516C00DAD0B3F5A02FD7D0B3F5403FD4D0012679
:10517C003546216801F480420023134331D0D4F822
:10518C00AC30B3F1005F49D020D843B1B3F1805FAC
:10519C0019D1012104F10800FFF760FD0546002D2F
:1051AC0043D1954A936D23F0E043D4F8AC100B43F4
:1051BC00936516E0012104F12800FFF7D5FD0546A3
:1051CC00AAE72E46D5E7012635460AE0B3F1804F13
:1051DC00E5D0B3F1A04FE2D0B3F1405FDFD00126B0
:1051EC003546216801F400420023134309D0E36ED5
:1051FC00B3F1805F1BD0B3F1005F26D0E3B1012681
:10520C003546216801F08072002313433FD0A36C14
:10521C00032B38D8DFE803F027223027012104F1D3
:10522C002800FFF7A1FD0546B9E72E46D9E7724ADB
:10523C00D36A43F40033D36275B96F4A136D23F00C
:10524C004053E16E0B431365DBE7012104F10800C9
:10525C00FFF704FD0546EFE72E46D2E7664AD36A10
:10526C0043F40033D3628DB9634AD36C23F0030348
:10527C00A16C0B43D3640AE0022104F10800FFF790
:10528C00EDFC0546EFE70126354600E02E46216889
:10529C0001F480020023134321D1216801F00102A3
:1052AC000023134300F09780A36F282B00F291800A
:1052BC00DFE803F07F8F8F8F8F8F8F8F798F8F8F9A
:1052CC008F8F8F8F888F8F8F8F8F8F8F7F8F8F8FF9
:1052DC008F8F8F8F7F8F8F8F8F8F8F8F7F00474A0E
:1052EC00136843F48073136002F0B6F90746434B1E
:1052FC001B6813F4807F05D102F0AEF9C01B642843
:10530C00F5D90325002D4AD13B4B1B6FD4F8B020A7
:10531C00534013F4407F0CD0374B1A6F22F4407279
:10532C00196F41F480311967196F21F480311967B5
:10533C001A67D4F8B030B3F5807F15D08DBBD4F894
:10534C00B03003F44072B2F5407F1ED02A4A136984
:10535C0023F47C53136128490B6FD4F8B020C2F3AB
:10536C000B0213430B6798E702F076F90746224BC2
:10537C001B6F13F0020FE1D102F06EF9C01B41F26A
:10538C0088339842F3D90325D8E71B48026922F4E5
:10539C007C521B4901EA131313430361DBE72E46CE
:1053AC007BE72E4679E7012104F10800FFF756FC54
:1053BC000546F5B9104A536D23F03803A16F0B4322
:1053CC00536508E0012104F12800FFF7CDFC0546E8
:1053DC00EFE701263546216801F002020023134352
:1053EC002AD0636F052B23D8DFE803F0120C1B12B5
:1053FC0012122E46EFE700BF004402580048025834
:10540C00CFFFFF00012104F10800FFF727FC054640
:10541C008DB9B54A536D23F00703616F0B43536588
:10542C000AE0012104F12800FFF79EFC0546EFE796
:10543C000126354600E02E46216801F004020023C7
:10544C00134323D0D4F89030052B1BD8DFE803F09E
:10545C00090313090909012104F10800FFF7FEFBF8
:10546C00054695B9A04A936D23F00703D4F8901024
:10547C000B4393650AE0012104F12800FFF774FC4B
:10548C000546EEE70126354600E02E46216801F080
:10549C0020020023134328D0D4F88C30B3F1005FE2
:1054AC0044D017D843B1B3F1805F10D1002104F17F
:1054BC000800FFF7D3FB0546002D3ED18A4A536DF9
:1054CC0023F0E043D4F88C100B4353650DE0012618
:1054DC0035460AE0B3F1804FEED0B3F1A04FEBD0DC
:1054EC00B3F1405FE8D001263546216801F0400257
:1054FC000023134331D0D4F89830B3F5006F4FD05C
:10550C0020D843B1B3F5806F19D1002104F1080004
:10551C00FFF7A4FB0546002D49D1734A936D23F484
:10552C00E053D4F898100B43936516E0022104F174
:10553C002800FFF719FC0546BEE72E46D5E70126E5
:10554C0035460AE0B3F5805FE5D0B3F5A05FE2D055
:10555C00B3F5406FDFD001263546216801F080029B
:10556C000023134333D0D4F89C30B3F5804F00F0B4
:10557C00B28021D843B1B3F5005F1AD1002104F1F8
:10558C000800FFF76BFB0546002D40F0AB80564A38
:10559C00936D23F46043D4F89C100B43936516E091
:1055AC00022104F12800FFF7DFFB0546B3E72E4686
:1055BC00D3E7012635460AE0B3F5004FE4D0B3F546
:1055CC00204FE1D0B3F5C04FDED00126354621681F
:1055DC0001F00802002313430DD0D4F88030B3F54A
:1055EC00805F00F08380404A536D23F44053D4F81D
:1055FC0080100B435365216801F010020023134304
:10560C000CD0D4F89430B3F5807F79D0364A936DB2
:10561C0023F44073D4F894100B439365216801F480
:10562C000022002313430CD0D4F8A030B3F5803FF4
:10563C0000F08080B3F5003F72D0002B6AD00126B9
:10564C003546216801F48022002313430DD0D4F891
:10565C008430B3F5001F00F08580B3F5401F77D080
:10566C00B3F5801F6FD001263546216801F48032D6
:10567C000023134308D0236D002B7CD0B3F5803F5F
:10568C0000F0878001263546216801F00052002386
:10569C00134340F08780216801F400320023134348
:1056AC0000F08D80E36FB3F5807F00F0F78040F25F
:1056BC008380B3F5007F03D0B3F5407F40F0EC80DE
:1056CC00002D40F0F180084A536D23F44073E16FD4
:1056DC000B43536573E0022104F12800FFF744FBF0
:1056EC00054651E72E4672E700440258022104F1A8
:1056FC002800FFF739FB00283FF475AF012672E74D
:10570C00022104F12800FFF72FFB00283FF47EAFA5
:10571C0001267BE7002104F10800FFF79FFA0546FC
:10572C007DB97D4A936D23F44033D4F8A0100B431C
:10573C00936586E7022104F12800FFF715FB054667
:10574C00EEE72E467DE7744AD36A43F40033D36206
:10575C007DB9714A536D23F44013D4F884100B4374
:10576C00536582E7012104F12800FFF7FDFA054695
:10577C00EEE72E4679E7684AD36A43F40033D362E6
:10578C0075B9654AD36C23F48033216D0B43D36414
:10579C007AE7022104F10800FFF760FA0546EFE70B
:1057AC002E4671E7022104F12800FFF7DDFA0028EC
:1057BC003FF471AF01266EE7002B81D001262168E2
:1057CC0001F480120023134306D0534A136D23F0C7
:1057DC000043216F0B431365216801F40012002371
:1057EC00134306D04C4A136D23F08073A16E0B4308
:1057FC001365216801F080420023134309D0464B06
:10580C001A6922F400421A611A69D4F8B4100A43D6
:10581C001A61216801F000420023134306D03E4A6E
:10582C00D36C23F04053616D0B43D364216801F4B6
:10583C0000020023134307D0374A536D23F440036F
:10584C00D4F888100B4353656168002201F0010302
:10585C0013432BD16168002201F0020313432ED1B4
:10586C006168002201F00403134331D16168002206
:10587C0001F00803134334D16168002201F01003D6
:10588C00134337D16168002201F0200313433AD14E
:10589C0006B101263046F8BD012690E71E4AD36AB0
:1058AC0043F40033D3620BE72E4688E7002104F162
:1058BC000800FFF7D3F90028CCD00646CAE701212F
:1058CC0004F10800FFF7CAF90028C9D00646C7E75B
:1058DC00022104F10800FFF7C1F90028C6D00646E2
:1058EC00C4E7002104F12800FFF73EFA0028C3D0DA
:1058FC000646C1E7012104F12800FFF735FA00281C
:10590C00C0D00646BEE7022104F12800FFF72CFAAE
:10591C000028BDD00646BBE70044025808B5FFF787
:10592C0057F9054B1B6AC3F30213044AD35C03F00B
:10593C001F03D84008BD00BF0044025818CF000810
:10594C0030B4784A916A946AC4F30535D36AC3F3C8
:10595C000013D26BC2F3CC0203FB02F314F47C3FB2
:10596C0000F0DA8001F0030107EE903AF8EE677A66
:10597C00012966D0022900F0B280E1B107EE105A7D
:10598C00B8EE477A9FED686AC6EE076A654B9B6B6B
:10599C00C3F3080307EE103AB8EE477A9FED636A3B
:1059AC0067EE867A77EE277AB7EE007A77EE877A0B
:1059BC0066EEA76A61E05B4B1B6813F0200F23D0E7
:1059CC0058490A68C2F3C102594BD34007EE103A4A
:1059DC00B8EE477A06EE905AB8EE666AC7EE066ADB
:1059EC008B6BC3F3080307EE103AB8EE477A9FEDC2
:1059FC004F6A67EE867A77EE277AB7EE007A77EE03
:105A0C00877A66EEA76A38E007EE105AB8EE477A46
:105A1C009FED486AC6EE076A424B9B6BC3F30803C3
:105A2C0007EE103AB8EE477A9FED406A67EE867A39
:105A3C0077EE277AB7EE007A77EE877A66EEA76A6A
:105A4C001BE007EE105AB8EE477A9FED376AC6EEA8
:105A5C00076A344B9B6BC3F3080307EE103AB8EE9E
:105A6C00477A9FED326A67EE867A77EE277AB7EE41
:105A7C00007A77EE877A66EEA76A2A4A936BC3F3AD
:105A8C00462307EE103AB8EE477AB7EE006A37EEC7
:105A9C00067AC6EE877AFCEEE77AC0ED007A936B55
:105AAC00C3F3064307EE103AB8EE477A37EE067AA0
:105ABC00C6EE877AFCEEE77AC0ED017A936BC3F3FE
:105ACC00066307EE903AF8EE677A77EE867A86EE02
